:1000000022C04DC266C23AC039C038C07CC236C0B8
:1000100035C034C033C007C231C030C02FC02EC07D
:100020002DC02CC02BC01FC229C040C091C004C12C
:1000300075C1A8C01BC18CC1BFC032C1A9C1D8C085
:1000400049C1C5C1E3C111241FBECFE5D1E0DEBF68
:10005000CDBF10E0A0E6B0E0E2E1F6E002C005901E
:100060000D92A236B107D9F720E0A2E6B0E001C0B8
:100070001D92A637B207E1F793D2C9C2C1CF80B5AE
:10008000816080BD219A8BB7886E8BBF85B78E60EB
:1000900085BF78940895E0916800F0916900EE3092
:1000A000F10508F0BFC1EB5EFF4F09948091640039
:1000B00090916500019709F0B5C1C59A2FE936E81E
:1000C00041E0215030404040E1F700C00000809105
:1000D0006C0090916D008130910559F4C29A2FE91E
:1000E00036E841E0215030404040E1F700C00000D8
:1000F00012C08091720090917300019789F4C19AA7
:100100008FE996E821E0815090402040E1F700C05F
:10011000000082E090E090936F0080936E0008955D
:100120008091740090917500019769F4C69A3FE937
:1001300046E881E0315040408040E1F700C00000D7
:1001400083E090E0E8CF10926F0010926E00089567
:100150008EE190E09093610080936000C49A9FE9E3
:1001600026E831E0915020403040E1F700C0000027
:100170008091700090917100019709F053C184E063
:1001800090E0FFC086E990E090936100809360006A
:10019000C39A4FE986E891E0415080409040E1F7F2
:1001A00000C000008091700090917100019709F0EB
:1001B00039C187E090E0E5C08AE590E09093610066
:1001C00080936000969A2FE936E841E02150304054
:1001D0004040E1F700C000008091700090917100F4
:1001E000019709F01FC182B312BA8AE090E093CF61
:1001F00086E990E09093610080936000959A8FE982
:1002000096E821E0815090402040E1F700C00000D6
:100210008091700090917100019709F003C18DE009
:1002200090E090936F0080936E0082B312BA1092A8
:100230006D0010926C0008958AE590E09093610043
:1002400080936000C49A3FE946E881E03150404025
:100250008040E1F700C00000809170009091710033
:10026000019709F0DFC085E090E08BC086E891E05F
:100270009093610080936000C39A9FE926E831E083
:10028000915020403040E1F700C0000080917000A4
:1002900090917100019709F0C5C088E090E071C0AD
:1002A00082ED90E09093610080936000969A4FE910
:1002B00086E891E0415080409040E1F700C00000A6
:1002C0008091700090917100019709F0ABC08BE0B4
:1002D00090E076C080EF90E09093610080936000A2
:1002E000959A2FE936E841E0215030404040E1F74F
:1002F00000C000008091700090917100019709F09A
:1003000091C08DE090E090936F0080936E0082B377
:1003100012BA1092730010927200089586E990E06C
:100320009093610080936000C49A8FE996E821E081
:10033000815090402040E1F700C0000080917000A3
:1003400090917100019709F06DC086E090E019C0AE
:100350008AE392E09093610080936000C39A3FE942
:1003600046E881E0315040408040E1F700C00000A5
:100370008091700090917100019709F053C089E05D
:1003800090E090936F0080936E0088B318BA089540
:100390008EE091E09093610080936000969A9FE9CF
:1003A00026E831E0915020403040E1F700C00000E5
:1003B00080917000909171000197A1F58CE090E020
:1003C00090936F0080936E0082B312BA089580EE0E
:1003D00091E09093610080936000959A4FE986E8E0
:1003E00091E0415080409040E1F700C000008091D2
:1003F0007000909171000197A9F482B312BA109223
:100400007500109274008DE090E085CE109263002C
:100410001092620010926F0010926E0010926500B0
:100420001092640008951F920F920FB60F9211243C
:100430008F939F9380B58E7F80BD8091680090914F
:100440006900892B31F481E090E090936D008093F6
:100450006C0080B5816080BD9F918F910F900FBE21
:100460000F901F9018951F920F920FB60F921124A4
:100470008F939F9321988091680090916900892BB8
:1004800031F481E090E09093730080937200219AA0
:100490009F918F910F900FBE0F901F9018951F92F4
:1004A0000F920FB60F9211248F939F938091680043
:1004B00090916900892B31F481E090E09093650080
:1004C000809364009F918F910F900FBE0F901F90AB
:1004D00018951F920F920FB60F9211248F939F932E
:1004E0008091680090916900892B31F481E090E05F
:1004F00090937500809374009F918F910F900FBE21
:100500000F901F9018951F920F920FB60F92112403
:100510002F933F938F939F938091620090916300FC
:1005200020916000309161008217930759F4109276
:1005300063001092620081E090E0909371008093DC
:10054000700009C00196909363008093620010923E
:100550007100109270009F918F913F912F910F9099
:100560000FBE0F901F9018958930910539F4909A1D
:10057000D89A82B382BB8BB38BBB08958830910528
:1005800039F482B382BB8BB38BBB82B382BB06C010
:10059000079729F4909A8BB38BBB949ADA9A0895B3
:1005A00012BE89B7826089BF10BE13BE83B7846054
:1005B00083BF83B7816083BF8EEF87BB83E781BB37
:1005C00085E08ABB81E088BB5ADD10926100109201
:1005D0006000109265001092640010926D001092FD
:1005E0006C001092730010927200109275001092BD
:1005F000740010926F0010926E0080916E009091C6
:100600006F00909369008093680045DDF6CFF89401
:02061000FFCF1A
:020612003C00AA
:00000001FF
