:1000000022C049C262C23AC039C038C078C236C0C4
:1000100035C034C033C003C231C030C02FC02EC081
:100020002DC02CC02BC01BC229C040C08DC000C138
:1000300071C1A4C017C188C1BBC02EC1A5C1D4C0A5
:1000400045C1C1C1DFC111241FBECFE5D1E0DEBF74
:10005000CDBF10E0A0E6B0E0E2EDF5E002C0059013
:100060000D92A236B107D9F720E0A2E6B0E001C0B8
:100070001D92A237B207E1F773D2A9C2C1CF80B5F2
:10008000816080BD219A8BB7886E8BBF85B78E60EB
:1000900085BF78940895E0916600F0916700EE3096
:1000A000F10508F0BBC1EB5EFF4F0994809164003D
:1000B00090916500019709F0B1C1C59A2FE936E822
:1000C00041E0215030404040E1F700C00000809105
:1000D0006800909169008130910559F4C29A2FE926
:1000E00036E841E0215030404040E1F700C00000D8
:1000F00012C080916E0090916F00019789F4C19AAF
:100100008FE996E821E0815090402040E1F700C05F
:10011000000082E090E090936B0080936A00089565
:100120008091700090917100019709F077C1C69A93
:100130003FE946E881E0315040408040E1F700C0AF
:10014000000083E090E0E7CF8EE190E090936100C3
:1001500080936000C49A9FE926E831E091502040E6
:100160003040E1F700C0000080916C0090916D007C
:10017000019709F053C184E090E0FFC086E990E068
:100180009093610080936000C39A4FE986E891E004
:10019000415080409040E1F700C0000080916C0029
:1001A00090916D00019709F039C187E090E0E5C0BA
:1001B0008AE590E09093610080936000969A2FE921
:1001C00036E841E0215030404040E1F700C00000F7
:1001D00080916C0090916D00019709F01FC182B36E
:1001E00012BA8AE090E097CF86E990E090936100A0
:1001F00080936000959A8FE996E821E081509040C5
:100200002040E1F700C0000080916C0090916D00EB
:10021000019709F003C18DE090E090936B0080930B
:100220006A0082B312BA10926900109268000895B1
:100230008AE590E09093610080936000C49A3FE962
:1002400046E881E0315040408040E1F700C00000C6
:1002500080916C0090916D00019709F0DFC085E0FE
:1002600090E08BC086E891E09093610080936000FD
:10027000C39A9FE926E831E0915020403040E1F7F1
:1002800000C0000080916C0090916D00019709F012
:10029000C5C088E090E071C082ED90E0909361006D
:1002A00080936000969A4FE986E891E04150804043
:1002B0009040E1F700C0000080916C0090916D00CB
:1002C000019709F0ABC08BE090E076C080EF90E042
:1002D0009093610080936000959A2FE936E841E0A1
:1002E000215030404040E1F700C0000080916C0098
:1002F00090916D00019709F091C08DE090E090938E
:100300006B0080936A0082B312BA10926F00109251
:100310006E00089586E990E09093610080936000FC
:10032000C49A8FE996E821E0815090402040E1F79F
:1003300000C0000080916C0090916D00019709F061
:100340006DC086E090E019C080EE91E0909361006E
:1003500080936000C39A3FE946E881E03150404015
:100360008040E1F700C0000080916C0090916D002A
:10037000019709F053C089E090E090936B0080935F
:100380006A0088B318BA08958EE091E090936100F6
:1003900080936000969A9FE926E831E091502040D2
:1003A0003040E1F700C0000080916C0090916D003A
:1003B0000197A1F58CE090E090936B0080936A0028
:1003C00082B312BA089584EA91E090936100809319
:1003D0006000959A4FE986E891E041508040904056
:1003E000E1F700C0000080916C0090916D000197D2
:1003F000A9F482B312BA10927100109270008DE0CD
:1004000090E089CE109263001092620010926B000F
:1004100010926A00109265001092640008951F9275
:100420000F920FB60F9211248F939F9380B58E7FFA
:1004300080BD8091660090916700892B31F481E046
:1004400090E0909369008093680080B5816080BDE2
:100450009F918F910F900FBE0F901F9018951F9234
:100460000F920FB60F9211248F939F932198809132
:10047000660090916700892B31F481E090E09093C1
:100480006F0080936E00219A9F918F910F900FBE05
:100490000F901F9018951F920F920FB60F92112474
:1004A0008F939F938091660090916700892B31F420
:1004B00081E090E090936500809364009F918F911C
:1004C0000F900FBE0F901F9018951F920F920FB6AE
:1004D0000F9211248F939F938091660090916700F3
:1004E000892B31F481E090E090937100809370004B
:1004F0009F918F910F900FBE0F901F9018951F9294
:100500000F920FB60F9211242F933F938F939F93C7
:1005100080916200909163002091600030916100B1
:100520008217930759F4109263001092620081E0E1
:1005300090E090936D0080936C0009C001969093B9
:1005400063008093620010926D0010926C009F9186
:100550008F913F912F910F900FBE0F901F90189584
:1005600012BE89B7826089BF10BE13BE83B7846094
:1005700083BF83B7816083BF8EEF87BB83E781BB77
:1005800085E08ABB81E088BB7ADD10926100109221
:100590006000109265001092640010926900109241
:1005A000680010926F0010926E001092710010920D
:1005B000700010926B0010926A0080916A00909116
:1005C0006B00909367008093660065DDF6CFF8942A
:0205D000FFCF5B
:0205D2003C00EB
:00000001FF
